:080000000C945B000C9400005D
:100008000C9400000C9400000C9400000C94000068
:100018000C9400000C9400000C9400000C94000058
:100028000C9400000C9400000C9400000C94000048
:100038000C9400000C9400000C9400000C94000038
:100048000C9400000C9400000C9400001027E803A6
:1000580064000A0001000010000110000100D20035
:10006800C8D20000000000C82573006461746100F4
:100078006B69636B004C316564004C306564004CFF
:10008800454430004C45443100736D657200727907
:100098006368006F6263680001002D4E414E0000E6
:1000A8000A000400660001009302A0000000F89412
:1000B800EE27ECBBF1E0FBBFEBBFE5BFF8E1F1BD1C
:1000C800E1BD8DE0A2E0BB27ED938A95E9F780E0DA
:1000D80098E0A0E6ED930197E9F7E8EAF0E085916A
:1000E8009591009761F0A591B59105901590BF0184
:1000F800F00105900D920197E1F7FB01F0CFEFE5D4
:10010800EDBFE8E0EEBFC0E6D2E00C94A9060E947D
:10011800BF08E066E7B985E28A95F1F70E94C20850
:10012800E064E6B90E94C208E071E1F30E94C208E7
:10013800E061E6B9E5B1F9C0E981AA81EA1750F0B2
:10014800BB270E94BF08EA0FFB1FA981B0E0EA178E
:10015800FB070CF402C0E1E006C1EA81A981EA17B5
:1001680050F0BB270E94BF08EA0FFB1FAA81B0E02E
:10017800EA17FB070CF402C0E1E0F5C0E0E0F3C0C9
:1001880028971A930A9311E108E0EFEF5E2EE7E053
:10019800EA93BDDFEA83EA85AA81AE1720F45A16EE
:1001A80010F011E05A80E6E0EA93B1DFEB83EA85CC
:1001B800AB81AE1720F45A1610F013E05B80E5E02F
:1001C800EA93A5DFEC83EA85AC81AE1720F4A51588
:1001D80010F415E05C80E4E0EA9399DFED83EA85AA
:1001E800AD81AE1720F45A1610F017E05D80E0E0FC
:1001F800EA938DDFEE83EA85AE81AE1720F45A16B6
:1002080010F019E05E80E1E0EA9381DFEF83EA8590
:10021800AF81AE1720F45A1610F01BE05F80E2E0C1
:10022800EA9375DFE887EA85A885AE1720F45A16A1
:1002380010F01DE05884E3E0EA9369DFE987EA8576
:10024800A985AE1720F45A1610F01FE05984113012
:1002580051F40E94C50811F412E004C00E94CE08AF
:1002680009F410E153C0133051F40E94D70811F477
:1002780014E004C00E94C50809F412E047C0153014
:1002880051F40E94E00811F416E004C00E94D70857
:1002980009F414E03BC0173051F40E94E90811F446
:1002A80018E004C00E94E00809F416E02FC01930D5
:1002B80051F40E94F20811F41AE004C00E94E908FF
:1002C80009F418E023C01B3051F40E94FB0811F414
:1002D8001CE004C00E94F20809F41AE017C01D309F
:1002E80051F40E94040911F41EE004C00E94FB08A6
:1002F80009F41CE00BC01F3049F40E94CE0811F429
:1003080010E104C00E94040909F41EE0E12F1981DC
:1003180008812B9608950E940D090E94BF083996FE
:10032800EA930E942A0A0E94050A219608950E94CB
:100338000D09E2EFEA930E942A0A0E94050A08952D
:100348000E94230991F40E942809E1E00E942E09E5
:10035800E0E0EA930E940F0A1E2F0E94050AE12F8F
:10036800F0E01981088123960895AA81A23001F549
:100378000E942809E2E00E942E09E1E0EA930E9427
:100388000F0A1E2FE0E0EA930E940F0A0E2F0E9428
:10039800050AA12FB0E0E0E0F1E00E946C0ADF015D
:1003A800E02FF0E0EA0FFB1F198108810C94E306A7
:1003B800EFEFFFEF198108810C94E3060E942309EF
:1003C80071F4E1E00E9437090F3FE0E01E0714F0E6
:1003D8000F5F1040112312F401501F4F0DC0E2E0CF
:1003E8000E9437090031EEE01E0714F00F501E403E
:1003F800112312F4015F114FF801198108810C943F
:1004080005072497E0E0E883E983EA83EB830E9409
:10041800B60B00E010E020E030E040E050E00E9441
:1004280041092C9133270F5F1F4FE0E0E887E987E8
:10043800A885B985A217B30784F50E9441094C9194
:1004480055270F5F1F4FE0E0EE83EF83AE81BF813A
:10045800A417B507E4F4E885F9856C857D85AAE0DD
:10046800B0E00E94640AE60FF71FAE81BF81EA0F71
:10047800FB1F0F010E944109EC91D001EC930F5F23
:100488001F4FEE81FF813196EE83FF83DFCFE88532
:10049800F9853196E887F987CBCF0E94BD0BFAC35F
:1004A800EF97EF972297E0E7F0E0FA93EA93FE01DF
:1004B8003296662777270E949B0A84E00E943C08B0
:1004C80026960E9447090E944C099BDFEF96EF96FB
:1004D800229608950E9451091CF4AB9AAC980BC05F
:1004E800E881F981309719F4AB98AC9804C0AB98BF
:1004F800AC9A0E945609E881F981F9BDE8BD62C24B
:100508000E9451091CF4AA98969A0BC0E881F981B7
:10051800309719F4AA98969804C0AA9A96980E94B7
:100528005609E881F981FBBDEABD4CC20E94510918
:100538001CF4A99AA8980BC0E881F981309719F49E
:10054800A998A89804C0A998A89A0E945609E88171
:10055800F981E3BD37C20E9451091CF4C198C29ABF
:100568000BC0E881F981309719F4C198C29804C08A
:10057800C19AC2980E945609E881F981ECBF22C24B
:100588000E94BF080E945F090E9464090E945F09D7
:100598000E9467090E946A090E946F090C94D1069B
:1005A8000E9473090E9464090E945F090E947809E9
:1005B8000E946F090C94D1060E94BF08FA93EA932F
:1005C8000E9464090E945F090E9467090E945F09EE
:1005D80097DF0E94BF080E946F090C94D1060E9401
:1005E800BF08FA93EA930E947D090E9467090E9456
:1005F8005F090E9480090C94D1060E94BF08FA93F3
:10060800EA930E946409FA93EA930E9467090E9498
:100618005F0976DF0E94BF080E945F099CDF0C9487
:10062800D1060E9473090E946409FA93EA930E9412
:1006380078090E945F098FDF0C94D1060E94BF08D9
:100648000E945F090E946409FA93EA930E9467096D
:100658000E946A090E945F097EDF0C94D1060E94FD
:10066800BF080E945F090E947D090E946709FA93EA
:10067800EA930E9480090C94D106E881F981FA93E3
:10068800EA9328DF0E94850951DF0E94850938DF37
:10069800E881F9810E946F0995C10E9473090E943F
:1006A8007D0944DF0E9473090E9480090895E0E0F3
:1006B800EBBBEABBE0E2E8BBEFE1E7BBE0E0E5BBB0
:1006C800EFEFE4BBE0E0E2BBE0EFE1BBEAE6E3BF6B
:1006D800E0E0E2BFECBFE1EAEFBDEAE0EEBDE0E05A
:1006E800EDBDECBDE7BDE6BDEBBDEABDE9BDE8BDCE
:1006F800E2BDEAE6E5BDE0E0E4BDE3BDE5BFE4BF99
:10070800E9BFEBB9E8E1EAB9E6E8E0BDE0E0E0BD61
:10071800E5E0E9B9E0E8E8B9E0E0E0BFE0E6E7B93C
:10072800E4E8E6B9E0B7F0E0EF7EF070E0BFE0B7EC
:10073800F0E0E061E0BF0E94F1090895C09AC49812
:100748000E948E09B59BFECFC098C49A08951A934B
:100758000A9300E010E0AA81BB81A53BE0E0BE0758
:1007680024F0E4EBF0E0EA83FB83AA81BB81AA359D
:10077800E0E0BE071CF4EA81FB8106C0AA81BB81C8
:10078800E4EBF0E0EA1BFB0BEC59FF4FCE2EAA81FD
:10079800BB811B97CCF0AA81BB81AB35E0E0BE07DB
:1007A8003CF4C498EC2DF0E00E945F0966DF0FC0AE
:1007B800AA81BB81AB3AE0E0BE0734F4C498EC2DC3
:1007C8000E9494095ADF03C0C49A01E010E0F801BE
:1007D8001981088124960895E0E55E1610F00C94BE
:1007E8006F04E881F981E130A0E0FA0719F44A9230
:1007F800C7DE70C0E230A0E0FA0721F40E94980931
:10080800DBDE68C0E330A0E0FA0719F44A92E7DEBD
:1008180061C0E430A0E0FA0719F44A92E0DE5AC059
:10082800E530A0E0FA0719F44A92E7DE53C0E63053
:10083800A0E0FA0719F46A92F4DE4CC0E730A0E0B1
:10084800FA0719F46A92EDDE45C0E830A0E0FA072D
:1008580019F46A92F3DE3EC0E930A0E0FA0719F411
:100868006A92ECDE37C0EA30A0E0FA0719F46A921F
:10087800A3DE30C0EB30A0E0FA0719F46A92AFDECD
:1008880029C0EC30A0E0FA0719F46A92A8DE22C069
:10089800ED30A0E0FA0719F44A92AFDE1BC0EE3043
:1008A800A0E0FA0719F44A92BCDE14C0EF30A0E0C9
:1008B800FA0719F44A92B5DE0DC0E031A0E0FA0754
:1008C80021F40E949809BADE05C0E131A0E0FA07D8
:1008D80009F4E3DE77C0E881F981E130A0E0FA07A6
:1008E80019F47A924DDE6EC0E230A0E0FA0719F4EE
:1008F8007A9256DE67C0E330A0E0FA0719F47A92DC
:100908004FDE60C0E430A0E0FA0719F47A9254DEB2
:1009180059C0E530A0E0FA0719F47A924DDE52C0CA
:10092800E630A0E0FA0719F44A9259DE4BC0E730E6
:10093800A0E0FA0719F44A9252DE44C0E830A0E079
:10094800FA0719F44A924BDE3DC0E930A0E0FA07F5
:1009580019F44A9252DE36C0EA30A0E0FA0719F4D8
:100968004A925FDE2FC0EB30A0E0FA0719F44A92F2
:1009780058DE28C0EC30A0E0FA0719F44A9251DE9C
:1009880021C0ED30A0E0FA0719F47A9257DE1AC0B8
:10099800EE30A0E0FA0719F47A9250DE13C0EF3077
:1009A800A0E0FA0719F47A925ADE0CC0E031A0E010
:1009B800FA0719F47A9253DE05C0E131A0E0FA078C
:1009C80009F46BDE229608952C971A930A9368DD32
:1009D8000E944709E3E7F0E00E94A209A9F5E7E0D1
:1009E800EA9395DBEA83E6E0EA9391DBEB83E5E0C3
:1009F800EA938DDBEC83E4E0EA9389DBED83E0E0C6
:100A0800EA9385DBEE83E1E0EA9381DBEF83E2E0C2
:100A1800EA937DDBE887E3E0EA9379DBE9870E94E4
:100A2800A809EA87E0E0B599E1E0EC5EEB870E946F
:100A3800AC0966277727EC870E944C090E94D306E9
:100A4800E1E0E09392020AC10E944709E8E7F0E07A
:100A58000E94A20911F472DE01C10E944709EDE764
:100A6800F0E00E94A20931F4A2E0B0E0E1E00E94C7
:100A7800BF0AF4C00E944709E2E8F0E00E94A20918
:100A880031F4A2E0B0E0E0E00E94BF0AE7C00E94B3
:100A98004709E7E8F0E00E94A20911F4C49ADEC011
:100AA8000E944709ECE8F0E00E94A20911F4C498FA
:100AB800D5C00E944709E1E9F0E00E94A20911F0BF
:100AC8000C94B9050E94C3098E2EE82DF0E03097EA
:100AD80011F4E3DD49C0E130A0E0FA0719F4DA9235
:100AE8004FDD42C0E230A0E0FA0719F4DA9258DD8F
:100AF8003BC0E330A0E0FA0719F4DA925DDD34C0B8
:100B0800E430A0E0FA0719F4DA9269DD2DC0E53087
:100B1800A0E0FA0719F4DA9270DD26C0E630A0E00A
:100B2800FA0719F4DA927DDD1FC0E730A0E0FA0772
:100B380019F4DA9283DD18C0E830A0E0FA0719F456
:100B4800DA928DDD11C0EA30A0E0FA0719F4EAEA7A
:100B5800F0E007C0E930A0E0FA0731F4E6E5FFEF7E
:100B6800FFEFFA93EA9389DD79C00E944709E6E925
:100B7800F0E00E94A20911F00C9415060E94C30926
:100B8800DE2EE82DF0E0309711F487DD49C0E13022
:100B9800A0E0FA0719F4DA92F3DC42C0E230A0E0F0
:100BA800FA0719F4DA92FCDC3BC0E330A0E0FA075C
:100BB80019F4DA9201DD34C0E430A0E0FA0719F440
:100BC800DA920DDD2DC0E530A0E0FA0719F4DA92CB
:100BD80014DD26C0E630A0E0FA0719F4DA9221DD28
:100BE8001FC0E730A0E0FA0719F4DA9227DD18C031
:100BF800E830A0E0FA0719F4DA9231DD11C0EA30E2
:100C0800A0E0FA0719F4EAEAF0E007C0E930A0E04A
:100C1800FA0731F4E6E5FFEFFFEFFA93EA932DDDEB
:100C28001DC00E944709EBE9F0E00E94A20931F4D7
:100C38000E94A8090E949409CFDD10C0E0E0EA8371
:100C4800EB83EC83ED83EE83EF83E887E987EA871C
:100C5800EB87EC870E944C090E94D306A2E0B0E023
:100C68000E94AB0AE130A1F4A0919202A13059F49C
:100C7800EC850E9494096BDD309721F0EA850E948B
:100C88009409AADD05C00E94A8090E949409A4DD60
:100C9800198108812E9608950E94230941F5B59976
:100CA80025C0B59908C0E4E1F0E00E94C909E1E077
:100CB8000E94CD09F6CF0E94AC098F01053BE0E008
:100CC8001E0714F004EB10E00431E0E01E0764F0A6
:100CD8000A35E0E01E0714F4C49A07C0003AE0E0C1
:100CE8001E0714F4C49A01C0C498E5CF2AC0B59968
:100CF80008C0E2E00E94CD09EAE0F0E00E94C909DC
:100D0800F6CFE8EEF3E00E94C909A0E0B0E00E9447
:100D1800A70AFA93EA93E2E0EA9350DB8F01083CD2
:100D2800E0E01E0764F00830E7E01E0714F4C49AF8
:100D380007C00834EDE01E0714F4C49A01C0C49833
:100D4800E4CF198108810C94E306B1DCE1E09E2E22
:100D5800EEDAE3E0EA93DFDA0E948E09E1E0EA9353
:100D68009BDF32DEFECF0E94AC09FA93EA93EFDCF8
:100D7800309729F00E94A8090E9494092DDDEEE120
:100D8800F0E00E94C909EFCFFFCF5F9BFECFECB127
:100D980008955D9BFECFE881ECB9219608951A93DA
:100DA800A981BA81ED91A983BA831E2FE03019F089
:100DB8001A93EFDFF5CFEAE0EA93EBDF1881239689
:100DC80008951A93AB81BC81EC911E2FE03019F085
:100DD800E0E0EC9314C0A981BA810E94970A309789
:100DE80061F00E94970AE0811E2FE03029F0ED9112
:100DF800FD913196FE93EE9302C0C7DF1E2FE12FBF
:100E080018812596089524970E94B60BE0E0E9879B
:100E18004E2FEE85FF853196EE87FF873197E49157
:100E28003E2FE03011F40C9437080E94D50991F058
:100E3800EDB7FEB7FA93EA934F930E94DA094F9100
:100E48003E2FE03019F00E94D50909F401C0F0CF17
:100E5800432F08C1353211F00C94260850E0EE8576
:100E6800FF853591EE87FF87303310F03A3308F06D
:100E780015C0A52FB0E0EAE0F0E0EA02F0015E2F2D
:100E8800652F77270E94E009E0E3F0E00E94A00ABE
:100E9800EA1BFB0BDB01EA0F5E2FE1CF303009F4D0
:100EA800E2C0EDB7FEB7FA93EA934F930E94DA09CE
:100EB8004F912E2FEA930E94A708E03091F7203037
:100EC80009F4CAC0422F503009F45FEF0E94E309C9
:100ED800E336A0E0FA0769F40E94E609EDB7FEB729
:100EE800FA93EA934F930E94DA094F91D801EC9351
:100EF800A5C0E337A0E0FA0711F50E94E609E52F3F
:100F08005150E030C1F0EDB7FEB7FA93EA934F9332
:100F18000E94DA094F913E2FE03019F00E94D5095E
:100F280009F009C01F930F930F5F1F4FE32FAF9175
:100F3800BF91EC93E4CFD801E0E0EC937FC0E1E00F
:100F4800E8870E94E309E436A0E0FA0721F0E936D1
:100F5800A0E0FA0719F4E0E0E88704C0E537A0E06C
:100F6800FA0711F42AE00CC0E837A0E0FA0711F4F8
:100F780020E106C0E532A0E0FA0709F463C073C0B7
:100F8800E0E0EE83EF83E52F5150E03011F40C944C
:100F98001508EDB7FEB7FA93EA934F930E94DA0962
:100FA8004F913E2FE132B8F0E885E03039F43D3218
:100FB80019F4EFEFE887E7CFE1E0E887203131F473
:100FC8003A930E94B108E03031F007C03A930E948A
:100FD8009F08E03011F4432F24C0313628F00E94D6
:100FE800E009E7E5F0E00BC0313428F00E94E009A1
:100FF800E7E3F0E004C00E94E009E0E3F0E00E94CB
:10100800A00AEA1B3E2FE22FF0E0AE81BF810E94CA
:10101800640ADF010E94E309EA0FFB1FEE83FF83E6
:10102800B2CF0E94E609E885F0E0E7FDFFEFAE8168
:10103800BF810E94640AD801ED93FC93E985EF5FB4
:10104800E98710C0EDB7FEB7FA93EA934F930E9471
:10105800DA094F91E31731F0E985E03011F4EFEF49
:1010680003C001C0D6CEE9850E94BD0B60960895E5
:10107800FF92F82E22971A930A93DE010E944F0AD4
:101088008D01E0E0EA83EB83DE0114960E944F0AAB
:101098000E94970AFA93EA931A930A93FE013696E6
:1010A800FA93EA93B0DE198108812496FF90089597
:1010B800B981A881EC91EA930E94A708EE2311F068
:1010C8001196F8CFE894EC91ED3211F4689402C0CF
:1010D800EB3209F4119666277727EC91EA930E9480
:1010E8009F08EE2379F0FB01660F771F660F771FC5
:1010F8006E0F7F1F660F771FED91FF27E0536E0F6E
:101108007F1FEBCFFB011EF4E095F09531962296F8
:101118000895E991F991A991B9911D90059001144B
:1011280021F40020D1F7EE2708951018E1F3E1E04B
:1011380008F4E2500895E1E0F991F03310F0FA3341
:1011480008F0EE270895E1E0F991F03229F0F9303E
:1011580010F0FE3008F0EE270895E1E0F991F05321
:1011680040F0FA3038F0FF75F750FA3010F0F031EF
:1011780008F0EE270895E881F0E00895E6B1F0E080
:101188000895EA81EA93EC81EA930A930E94A00009
:10119800E1300895E985EA93EB81EA930A930E9486
:1011A800A000E1300895EB81EA93ED81EA930A9378
:1011B8000E94A000E1300895EC81EA93EE81EA9361
:1011C8000A930E94A000E1300895ED81EA93EF812F
:1011D800EA930A930E94A000E1300895EE81EA9311
:1011E800E885EA930A930E94A000E1300895EF8110
:1011F800EA93E985EA930A930E94A000E1300895F2
:10120800E885EA93EA85EA930A930E94A000E13010
:1012180008950E94F609E0ECEA930E942A0AE2E1A6
:10122800EA930E942A0AE5E5EA930E942A0AEAE577
:10123800EA930E942A0AE5EAEA930C942A0A1A9386
:101248000A93AA81A13008950E94F609E0ECEA9376
:101258000C942A0AEA930E942A0A0E94F609E1ECF1
:10126800EA930C942A0AEA930E94A401DF01EB8115
:10127800FC81AE1BBF0B8D010895F801AA85BB85C3
:10128800AE0FBF1F0895E0E6F2E0FA93EA930895DF
:10129800FE013296FA93EA930895A881B9810E94D3
:1012A800B20B0895A881B981EFEFFFEF0E946C0A95
:1012B800E883F98308950E94530AFA93EA930895FC
:1012C8000E946E0258CF0E949A0255CFFA93EA9371
:1012D8000E94840250CFFA93EA930C94AF02E0E0A4
:1012E800F0E0FA93EA9308950E949A02E0E0F0E0B1
:1012F800EDCF0E946E02F3CF0E948402E0E0F0E09E
:10130800EACFA881B981E3E0F0E00E94840AFA9369
:10131800EA930895E8ECF0E0FA93EA930C94430A10
:10132800F0E0FA93EA930895A42DB0E0EAE0F0E043
:101338000E94A00AEA1BFB0BEA930895FA93EA932A
:101348000E948D08E0300895E8ECEA930C94C400FC
:10135800A0E0B0E00E94A70AFA93EA93E1E0EA93DA
:101368000E94E2010E945F0A0E94360BAFE8B2ECCD
:1013780085E39FE30E94640B0E94FF0A0895EAE652
:10138800F2E0FA93EA930C945C08FA93EA930C94CB
:10139800430AEA930E94A401A0E0B0E00E94B70AC1
:1013A80008953A930E94A708E0300895EC85FD85DA
:1013B800FA93EA930C94E506A32FB0E00895E32F7F
:1013C800F0E00895EC85FD853497EC87FD87AC85C2
:1013D800BD8514960D911C910895929893988A9AB8
:1013E8008B9815C08B988A98EE270000839B0895E8
:1013F800829B089504D08B9A02D08A9AE1E062E138
:1014080007C08B9A8A9A03D08A98F9DF8B9865E28D
:101418006A95F1F7089578E08A98F1DF829BFECF0C
:10142800EEDF8894839908948A9AF1DFEE1F7A9503
:1014380099F77991772311F48B9801C08B9ADFDFA4
:101448008A98E5DF8A9ADBDF8B98D9CFE99178E033
:10145800EE0F10F48B9801C08B9AD9DF8A98CFDFF2
:10146800829BFECFCCDF8A9A7A9591F78B98C7DF5B
:101478008A98CDDFE1E08399EE278A9A0895E99169
:10148800F991309639F08DEC9AE00197F1F7A8952B
:101498003197C9F708950024AF0DB01D0895F1954F
:1014A800E195F0400895F09560957095E195FF4FAE
:1014B8006F4F7F4F08956F2F660F660B762F089535
:1014C800FA9FF02DEB9FF00DEA9FE02DF10D0895A6
:1014D8001CD0F6DF0EF4E3DF08950024112490E118
:1014E800AA0FBB1F001C111C0E1A1F0A18F40E0E9F
:1014F8001F1E01C0A1609A9599F7FD01D0010895BA
:1015080004D0EBDF0EF4CBDF0895E894F7FF02C0B8
:10151800C6DF6894B7FF06C0A095B095119600F88D
:10152800039400FA0895ED91FC91119708957A9328
:101538006A93FA93EA9308951B2EBF2FF12D1A2E62
:10154800AE2FE12D0895119602D0FE2F1197E19943
:10155800FECFFF93FFB7F894AEBBBFBBE09AEDB3E5
:10156800FFBFFF91089507D01196EF93EF2F03D097
:10157800EF9111970895E19B02C0A895FCCF9FB702
:10158800F894AEBBBFBBE09A8DB3E81719F0EDBB7A
:10159800E29AE19A9FBF0895552342F4503811F416
:1015A800E0FF04C03196691F791F6BF050E8572798
:1015B80011F45F9373C05F3F31F0660F000C5795CD
:1015C8006795752F08955F9300200AF073C06CC06B
:1015D80050E8192E1522880F991F9527550F8795C2
:1015E80050E8072E0522660F771F7527550F679558
:1015F8000895689401C0E8945F93F2DF703818F09A
:101608007F3F08F44BC056E1571BAAF45195583058
:101618000EF4593030F0EFEFFFEF6FEF7FE777F917
:101628001AC077275523B9F0EE0FFF1F661F771FE3
:101638005A95D1F710C07727583028F0EF2FF62F9A
:10164800672F5850F9CF552331F076956795F79560
:10165800E7955A95D1F700200AF425DF5F910895A0
:10166800689401C0E894309760407040B1F000245D
:1016780026F0772312F4009416DF172E7EE111204E
:1016880032F07A95EE0FFF1F661F111CF9CFEF2F6E
:10169800F62F612D5F938ADF5F910895EE27FF276C
:1016A800662777275F910895EFEFFFEF6FE77FEFEA
:1016B8005F910895EFEFFFEF6FE77FE75F91089580
:1016C8005F9386DF703851F3903841F30124089412
:1016D800791F23F41CF300203AF3ECCF0F921F93E9
:1016E8002F933F934F93112722279927689FA00193
:1016F8008F9F302D410D591F6B9F300D411D591F74
:101708008E9F27D0BF9F25D06A9F23D0BE9F1DD014
:10171800AF9F1BD0AE9F110D291F391F491F591F9D
:10172800E32FF42F652F522F4F913F912F911F9147
:101738000F9066232AF0550FEE1FFF1F661F02C089
:1017480073954BF229DF5F910895100D211D391F04
:1017580002C0200D311D491F591F089500240A1683
:101768000B0608955A934A933A932A931A930A9325
:1017780008955D814C813B812A81198108810895F2
:00000001FF
