:080000000C9456000C94000062
:100008000C9400000C9400000C9400000C94000068
:100018000C9400000C9400000C9400000C94000058
:100028000C9400000C9400000C9400000C94000048
:100038000C9400000C9400000C9400000C94000038
:100048000C9400000C9400000C9400001027E803A6
:1000580064000A0001000010000110000100D20035
:10006800C8D20000000000C82573006461746100F4
:100078006B69636B004C454430004C454431006269
:100088006C696B00736D65720072796368000100BA
:100098002D4E414E00000A00040066000100920245
:1000A80096000000F894EE27ECBBF1E0FBBFEBBF35
:1000B800E5BFF8E1F1BDE1BD8DE0A2E0BB27ED931E
:1000C8008A95E9F780E098E0A0E6ED930197E9F7D3
:1000D800EEE9F0E085919591009761F0A591B591D1
:1000E80005901590BF01F00105900D920197E1F779
:1000F800FB01F0CFEFE5EDBFE8E0EEBFC0E6D2E0F0
:100108000C9418060E943008E066E7B985E28A95E3
:10011800F1F70E943308E064E6B90E943308E07101
:10012800E1F30E943308E061E6B9E5B1219608954C
:10013800E981AA81EA1750F0BB270E943008EA0F2C
:10014800FB1FA981B0E0EA17FB070CF402C0E1E04D
:1001580012C0EA81A981EA1750F0BB270E94300833
:10016800EA0FFB1FAA81B0E0EA17FB070CF402C0F4
:10017800E1E001C0E0E02396089528971A930A93D6
:1001880011E108E0EFEF5E2EE7E0EA93BBDFEA83D8
:10019800EA85AA81AE1720F45A1610F011E05A80A9
:1001A800E6E0EA93AFDFEB83EA85AB81AE1720F494
:1001B8005A1610F013E05B80E5E0EA93A3DFEC83C6
:1001C800EA85AC81AE1720F4A51510F415E05C8023
:1001D800E4E0EA9397DFED83EA85AD81AE1720F47A
:1001E8005A1610F017E05D80E0E0EA938BDFEE83AB
:1001F800EA85AE81AE1720F45A1610F019E05E8039
:10020800E1E0EA937FDFEF83EA85AF81AE1720F460
:100218005A1610F01BE05F80E2E0EA9373DFE8878C
:10022800EA85A885AE1720F45A1610F01DE0588408
:10023800E3E0EA9367DFE987EA85A985AE1720F44A
:100248005A1610F01FE05984113051F40E943608F4
:1002580011F412E004C00E943F0809F410E153C0F1
:10026800133051F40E94480811F414E004C00E94AD
:10027800360809F412E047C0153051F40E945108BD
:1002880011F416E004C00E94480809F414E03BC0C9
:10029800173051F40E945A0811F418E004C00E9463
:1002A800510809F416E02FC0193051F40E94630870
:1002B80011F41AE004C00E945A0809F418E023C097
:1002C8001B3051F40E946C0811F41CE004C00E9419
:1002D800630809F41AE017C01D3051F40E9475082C
:1002E80011F41EE004C00E946C0809F41CE00BC065
:1002F8001F3049F40E943F0811F410E104C00E9425
:10030800750809F41EE0E12F198108812B960895DC
:100318000E947E080E9430083996EA930E949A0942
:100328000E9475090C9442060E947E08E2EFEA9347
:100338000E949A090E94750908950E94940891F4F0
:100348000E949908E1E00E949F08E0E0EA930E9479
:100358007F091E2F0E947509E12FF0E0198108819D
:100368000C945406AA81A23001F50E949908E2E093
:100378000E949F08E1E0EA930E947F091E2FE0E0B7
:10038800EA930E947F090E2F0E947509A12FB0E001
:10039800E0E0F1E00E94DC09DF01E02FF0E0EA0F85
:1003A800FB1F198108810C945406EFEFFFEF1981A8
:1003B80008810C9454060E94940871F4E1E00E94AC
:1003C800A8080F3FE0E01E0714F00F5F104011234C
:1003D80012F401501F4F0DC0E2E00E94A80800313E
:1003E800EEE01E0714F00F501E40112312F4015FB7
:1003F800114FF801198108810C9476060E94B20801
:100408001CF4AB9AAC980BC0E881F981309719F4C9
:10041800AB98AC9804C0AB98AC9A0E94B708E88136
:10042800F981F9BDE8BD63C20E94B2081CF4AA981C
:10043800969A0BC0E881F981309719F4AA98969892
:1004480004C0AA9A96980E94B708E881F981FBBD72
:10045800EABD4DC20E94B2081CF4A99AA8980BC024
:10046800E881F981309719F4A998A89804C0A99847
:10047800A89A0E94B708E881F981E3BD38C20E94B2
:10048800B2081CF4C198C29A0BC0E881F981309770
:1004980019F4C198C29804C0C19AC2980E94B708BA
:1004A800E881F981ECBF23C20E9430080E94C0088D
:1004B8000E94C5080E94C0080E94C8080E94CB0874
:1004C8000E94D0080C9442060E94D4080E94C508D5
:1004D8000E94C0080E94D9080E94D0080C944206C5
:1004E8000E943008FA93EA930E94C5080E94C00847
:1004F8000E94C8080E94C00897DF0E9430080E9426
:10050800D0080C9442060E943008FA93EA930E949D
:10051800DE080E94C8080E94C0080E94E1080C94E6
:1005280042060E943008FA93EA930E94C508FA939B
:10053800EA930E94C8080E94C00876DF0E9430082B
:100548000E94C0089CDF0C9442060E94D4080E94B6
:10055800C508FA93EA930E94D9080E94C0088FDF61
:100568000C9442060E9430080E94C0080E94C508E8
:10057800FA93EA930E94C8080E94CB080E94C00818
:100588007EDF0C9442060E9430080E94C0080E9438
:10059800DE080E94C808FA93EA930E94E1080C94C6
:1005A8004206E881F981FA93EA9328DF0E94E60877
:1005B80051DF0E94E60838DFE881F9810E94D008FF
:1005C80096C10E94D4080E94DE0844DF0E94D40825
:1005D8000E94E1080895E0E0EBBBEABBE0E2E8BB7B
:1005E800EFE1E7BBE0E0E5BBEFEFE4BBE0E0E2BB57
:1005F800E0EFE1BBEAE6E3BFE0E0E2BFECBFE1EA3F
:10060800EFBDEAE0EEBDE0E0EDBDECBDE7BDE6BD67
:10061800EBBDEABDE9BDE8BDE2BDEAE6E5BDE0E067
:10062800E4BDE3BDE5BFE4BFE9BFEBB9E8E1EAB982
:10063800E6E8E0BDE0E0E0BDE5E0E9B9E0E8E8B91A
:10064800E0E0E0BFE0E6E7B9E4E8E6B9E0B7F0E00B
:10065800EF7EF070E0BFE0B7F0E0E061E0BF0E943D
:1006680061090895C09AC4980E94EF08B59BFECF0F
:10067800C098C49A08951A930A9300E010E0AA81DA
:10068800BB81A53BE0E0BE0724F0E4EBF0E0EA83A1
:10069800FB83AA81BB81AA35E0E0BE071CF4EA818E
:1006A800FB8106C0AA81BB81E4EBF0E0EA1BFB0BEF
:1006B800EC59FF4FCE2EAA81BB811B97D4F0AA819B
:1006C800BB81AB35E0E0BE073CF4C498EC2DF0E00C
:1006D8000E94C00866DF10C0AA81BB81AB3AE0E087
:1006E800BE073CF4C498EC2DF0E0FA93EA9359DF86
:1006F80003C0C49A01E010E0F8011981088124962A
:100708000895E0E55E1610F00C940404E881F98180
:10071800E130A0E0FA0719F44A92C6DE70C0E23070
:10072800A0E0FA0721F40E94F508DADE68C0E33099
:10073800A0E0FA0719F44A92E6DE61C0E430A0E0CE
:10074800FA0719F44A92DFDE5AC0E530A0E0FA074A
:1007580019F44A92E6DE53C0E630A0E0FA0719F42D
:100768006A92F3DE4CC0E730A0E0FA0719F46A9207
:10077800ECDE45C0E830A0E0FA0719F46A92F2DE30
:100788003EC0E930A0E0FA0719F46A92EBDE37C000
:10079800EA30A0E0FA0719F46A92A2DE30C0EB3022
:1007A800A0E0FA0719F46A92AEDE29C0EC30A0E0A6
:1007B800FA0719F46A92A7DE22C0ED30A0E0FA0722
:1007C80019F44A92AEDE1BC0EE30A0E0FA0719F425
:1007D8004A92BBDE14C0EF30A0E0FA0719F44A923F
:1007E800B4DE0DC0E031A0E0FA0721F40E94F5085C
:1007F800B9DE05C0E131A0E0FA0709F4E2DE77C00E
:10080800E881F981E130A0E0FA0719F47A924CDE28
:100818006EC0E230A0E0FA0719F47A9255DE67C09C
:10082800E330A0E0FA0719F47A924EDE60C0E430B3
:10083800A0E0FA0719F47A9253DE59C0E530A0E037
:10084800FA0719F47A924CDE52C0E630A0E0FA07B3
:1008580019F44A9258DE4BC0E730A0E0FA0719F4C1
:100868004A9251DE44C0E830A0E0FA0719F44A92EF
:100878004ADE3DC0E930A0E0FA0719F44A9251DE99
:1008880036C0EA30A0E0FA0719F44A925EDE2FC0BB
:10089800EB30A0E0FA0719F44A9257DE28C0EC3092
:1008A800A0E0FA0719F44A9250DE21C0ED30A0E02A
:1008B800FA0719F47A9256DE1AC0EE30A0E0FA0769
:1008C80019F47A924FDE13C0EF30A0E0FA0719F45A
:1008D8007A9259DE0CC0E031A0E0FA0719F47A9256
:1008E80052DE05C0E131A0E0FA0709F46ADE22967B
:1008F80008950E94FF08E3E7F0E00E941209A1F5BD
:100908002C97E7E0EA93FEDBE883E6E0EA93FADB7C
:10091800E983E5E0EA93F6DBEA83E4E0EA93F2DBD5
:10092800EB83E0E0EA93EEDBEC83E1E0EA93EADBD9
:10093800ED83E2E0EA93E6DBEE83E3E0EA93E2DBD1
:10094800EF83E8ECEA9319DCE8870E941809662728
:100958007727E987E0E0B599E1E0EA870E942F0967
:100968000E9444062C9605C10E942F09E8E7F0E092
:100978000E94120911F476DEFCC00E942F09EDE7EF
:10098800F0E00E94120911F4C49AF3C00E942F09E2
:10099800E2E8F0E00E94120911F4C498EAC00E944B
:1009A8002F09E7E8F0E00E94120939F56697E0E7B9
:1009B800F0E0FA93EA93FE013296662777270E94C1
:1009C8000B0A84E00E94AD0726960E942F090E9418
:1009D800CD07EC8BFD8BEC89FD89309761F0C498CD
:1009E8000E943309C49A0E943309EC89FD89319722
:1009F800EC8BFD8BF0CF6696BCC00E942F09ECE80B
:100A0800F0E00E94120911F00C945F050E94FF08A3
:100A18000E94CD078E2EE82DF0E0309711F4D1DD3D
:100A280049C0E130A0E0FA0719F4DA923DDD42C08E
:100A3800E230A0E0FA0719F4DA9246DD3BC0E33071
:100A4800A0E0FA0719F4DA924BDD34C0E430A0E0F4
:100A5800FA0719F4DA9257DD2DC0E530A0E0FA075D
:100A680019F4DA925EDD26C0E630A0E0FA0719F440
:100A7800DA926BDD1FC0E730A0E0FA0719F4DA92CA
:100A880071DD18C0E830A0E0FA0719F4DA927BDDCE
:100A980011C0EA30A0E0FA0719F4EAEAF0E007C06A
:100AA800E930A0E0FA0731F4E6E5FFEFFFEFFA934B
:100AB800EA9377DD5DC00E942F09E1E9F0E00E942A
:100AC800120911F00C94BD050E94FF080E94CD0781
:100AD800DE2EE82DF0E0309711F473DD49C0E130E7
:100AE800A0E0FA0719F4DA92DFDC42C0E230A0E0B5
:100AF800FA0719F4DA92E8DC3BC0E330A0E0FA0721
:100B080019F4DA92EDDC34C0E430A0E0FA0719F405
:100B1800DA92F9DC2DC0E530A0E0FA0719F4DA9290
:100B280000DD26C0E630A0E0FA0719F4DA920DDD00
:100B38001FC0E730A0E0FA0719F4DA9213DD18C0F5
:100B4800E830A0E0FA0719F4DA921DDD11C0EA30A6
:100B5800A0E0FA0719F4EAEAF0E007C0E930A0E0FB
:100B6800FA0731F4E6E5FFEFFFEFFA93EA9319DDB0
:100B78006496649608950E94940841F5B59925C035
:100B8800B59908C0E4E1F0E00E943909E1E00E946B
:100B98003D09F6CF0E9418098F01053BE0E01E07CA
:100BA80014F004EB10E00431E0E01E0764F00A35AD
:100BB800E0E01E0714F4C49A07C0003AE0E01E07FC
:100BC80014F4C49A01C0C498E5CF2AC0B59908C0E6
:100BD800E2E00E943D09EAE0F0E00E943909F6CF20
:100BE800E8EEF3E00E943909A0E0B0E00E94170A9D
:100BF800FA93EA93E2E0EA93DEDB8F01083CE0E057
:100C08001E0764F00830E7E01E0714F4C49A07C012
:100C18000834EDE01E0714F4C49A01C0C498E4CF68
:100C2800198108810C945406D6DCE1E09E2E7CDB09
:100C3800E3E0EA936DDB0E94EF08E1E0EA939BDFD3
:100C480058DEFECF0E941809FA93EA9314DD309714
:100C580039F0E8ECEA9391DAF0E0FA93EA9351DD9F
:100C6800EEE1F0E00E943909EDCFFFCF5F9BFECFA8
:100C7800ECB108955D9BFECFE881ECB9219608950B
:100C88001A93A981BA81ED91A983BA831E2FE03006
:100C980019F01A93EFDFF5CFEAE0EA93EBDF18815A
:100CA800239608951A93AB81BC81EC911E2FE030F6
:100CB80019F0E0E0EC9314C0A981BA810E94070AF8
:100CC800309761F00E94070AE0811E2FE03029F07A
:100CD800ED91FD913196FE93EE9302C0C7DF1E2F72
:100CE800E12F18812596089524970E94260BE0E0AD
:100CF800E9874E2FEE85FF853196EE87FF8731977E
:100D0800E4913E2FE03011F40C94A8070E944509A5
:100D180091F0EDB7FEB7FA93EA934F930E944A0910
:100D28004F913E2FE03019F00E94450909F401C0A7
:100D3800F0CF432F08C1353211F00C94970750E0DB
:100D4800EE85FF853591EE87FF87303310F03A3313
:100D580008F015C0A52FB0E0EAE0F0E0EA02F001E3
:100D68005E2F652F77270E945009E0E3F0E00E948C
:100D7800100AEA1BFB0BDB01EA0F5E2FE1CF3030D4
:100D880009F4E2C0EDB7FEB7FA93EA934F930E94D5
:100D98004A094F912E2FEA930E941808E03091F7E4
:100DA800203009F4CAC0422F503009F45FEF0E9486
:100DB8005309E336A0E0FA0769F40E945609EDB733
:100DC800FEB7FA93EA934F930E944A094F91D801CC
:100DD800EC93A5C0E337A0E0FA0711F50E94560985
:100DE800E52F5150E030C1F0EDB7FEB7FA93EA9322
:100DF8004F930E944A094F913E2FE03019F00E940C
:100E0800450909F009C01F930F930F5F1F4FE32F88
:100E1800AF91BF91EC93E4CFD801E0E0EC937FC0B1
:100E2800E1E0E8870E945309E436A0E0FA0721F0E0
:100E3800E936A0E0FA0719F4E0E0E88704C0E537EE
:100E4800A0E0FA0711F42AE00CC0E837A0E0FA079E
:100E580011F420E106C0E532A0E0FA0709F463C006
:100E680073C0E0E0EE83EF83E52F5150E03011F4DA
:100E78000C948607EDB7FEB7FA93EA934F930E9456
:100E88004A094F913E2FE132B8F0E885E03039F455
:100E98003D3219F4EFEFE887E7CFE1E0E88720314A
:100EA80031F43A930E942208E03031F007C03A93B7
:100EB8000E941008E03011F4432F24C0313628F086
:100EC8000E945009E7E5F0E00BC0313428F00E9499
:100ED8005009E7E3F0E004C00E945009E0E3F0E0C5
:100EE8000E94100AEA1B3E2FE22FF0E0AE81BF817C
:100EF8000E94D409DF010E945309EA0FFB1FEE8309
:100F0800FF83B2CF0E945609E885F0E0E7FDFFEFC6
:100F1800AE81BF810E94D409D801ED93FC93E98585
:100F2800EF5FE98710C0EDB7FEB7FA93EA934F93E6
:100F38000E944A094F91E31731F0E985E03011F436
:100F4800EFEF03C001C0D6CEE9850E942D0B609655
:100F58000895FF92F82E22971A930A93DE010E94B1
:100F6800BF098D01E0E0EA83EB83DE0114960E945D
:100F7800BF090E94070AFA93EA931A930A93FE019B
:100F88003696FA93EA93B0DE198108812496FF9089
:100F98000895B981A881EC91EA930E941808EE237C
:100FA80011F01196F8CFE894EC91ED3211F46894B1
:100FB80002C0EB3209F4119666277727EC91EA9381
:100FC8000E941008EE2379F0FB01660F771F660F69
:100FD800771F6E0F7F1F660F771FED91FF27E05376
:100FE8006E0F7F1FEBCFFB011EF4E095F095319655
:100FF80022960895E991F991A991B9911D900590CA
:10100800011421F40020D1F7EE2708951018E1F318
:10101800E1E008F4E2500895E1E0F991F03310F0CE
:10102800FA3308F0EE270895E1E0F991F03229F05B
:10103800F93010F0FE3008F0EE270895E1E0F9915C
:10104800F05340F0FA3038F0FF75F750FA3010F0EE
:10105800F03108F0EE270895E881F0E00895E6B150
:10106800F0E00895EA81EA93EC81EA930A930E94FA
:101078009C00E1300895E985EA93EB81EA930A93AD
:101088000E949C00E1300895EB81EA93ED81EA9398
:101098000A930E949C00E1300895EC81EA93EE8166
:1010A800EA930A930E949C00E1300895ED81EA9347
:1010B800EF81EA930A930E949C00E1300895EE8143
:1010C800EA93E885EA930A930E949C00E130089528
:1010D800EF81EA93E985EA930A930E949C00E13044
:1010E8000895E885EA93EA85EA930A930E949C00AA
:1010F800E13008950E946609E0ECEA930E949A099B
:10110800E2E1EA930E949A09E5E5EA930E949A09C6
:10111800EAE5EA930E949A09E5EAEA930C949A09A7
:101128001A930A93AA81A13008950E946609E0ECF7
:10113800EA930C949A09EA930E949A090E94660914
:10114800E1ECEA930C949A09EA930E94A101DF0169
:10115800EB81FC81AE1BBF0B8D010895A881B9817D
:101168000E94220B0895A881B981EFEFFFEF0E943A
:10117800DC09E883F98308950E94C309FA93EA9386
:1011880008950E94020268CF0E942E0265CFFA934A
:10119800EA930E94180260CFFA93EA930C944302F0
:1011A800E0E0F0E0FA93EA9308950E942E02E0E06E
:1011B800F0E0EDCF0E940202F3CF0E941802E0E0B7
:1011C800F0E0EACFA881B981E3E0F0E00E94F409F9
:1011D800FA93EA930895E8ECF0E0FA93EA930C9412
:1011E800B309A42DB0E0EAE0F0E00E94100AEA1B7F
:1011F800FB0BEA9308956497E0E7F0E0FA93EA932B
:10120800FE013296662777270E940B0A84E00E9427
:10121800AD072696FE01FA93EA930895FA93EA93A6
:101228000E94FE07E0300895A0E0B0E00E94170A8F
:10123800FA93EA93E1E0EA930E94DF010E94CF0962
:101248000E94A60AAFE8B2EC85E39FE30E94D40AA5
:101258000E946F0A0895FE01FA93EA930895E4EF55
:10126800F1E0FA93EA930C94B309FA93EA930C9495
:10127800B309EA930E94A101A0E0B0E00E94270A06
:1012880008953A930E941808E0300895EC85FD858A
:10129800FA93EA930C945606A32FB0E00895E32F2F
:1012A800F0E00895EC85FD853497EC87FD87AC85E3
:1012B800BD8514960D911C910895929893988A9AD9
:1012C8008B9815C08B988A98EE270000839B089509
:1012D800829B089504D08B9A02D08A9AE1E062E159
:1012E80007C08B9A8A9A03D08A98F9DF8B9865E2AF
:1012F8006A95F1F7089578E08A98F1DF829BFECF2E
:10130800EEDF8894839908948A9AF1DFEE1F7A9524
:1013180099F77991772311F48B9801C08B9ADFDFC5
:101328008A98E5DF8A9ADBDF8B98D9CFE99178E054
:10133800EE0F10F48B9801C08B9AD9DF8A98CFDF13
:10134800829BFECFCCDF8A9A7A9591F78B98C7DF7C
:101358008A98CDDFE1E08399EE278A9A0895E9918A
:10136800F991309639F08DEC9AE00197F1F7A8954C
:101378003197C9F708950024AF0DB01D0895F19570
:10138800E195F0400895F09560957095E195FF4FCF
:101398006F4F7F4F08956F2F660F660B762F089556
:1013A800FA9FF02DEB9FF00DEA9FE02DF10D0895C7
:1013B8001CD0F6DF0EF4E3DF08950024112490E139
:1013C800AA0FBB1F001C111C0E1A1F0A18F40E0EC0
:1013D8001F1E01C0A1609A9599F7FD01D0010895DB
:1013E80004D0EBDF0EF4CBDF0895E894F7FF02C0DA
:1013F800C6DF6894B7FF06C0A095B095119600F8AF
:10140800039400FA0895ED91FC91119708957A9349
:101418006A93FA93EA9308951B2EBF2FF12D1A2E83
:10142800AE2FE12D0895119602D0FE2F1197E19964
:10143800FECFFF93FFB7F894AEBBBFBBE09AEDB306
:10144800FFBFFF91089507D01196EF93EF2F03D0B8
:10145800EF9111970895E19B02C0A895FCCF9FB723
:10146800F894AEBBBFBBE09A8DB3E81719F0EDBB9B
:10147800E29AE19A9FBF0895552342F4503811F437
:10148800E0FF04C03196691F791F6BF050E85727B9
:1014980011F45F9373C05F3F31F0660F000C5795EE
:1014A8006795752F08955F9300200AF073C06CC08C
:1014B80050E8192E1522880F991F9527550F8795E3
:1014C80050E8072E0522660F771F7527550F679579
:1014D8000895689401C0E8945F93F2DF703818F0BB
:1014E8007F3F08F44BC056E1571BAAF4519558307A
:1014F8000EF4593030F0EFEFFFEF6FEF7FE777F939
:101508001AC077275523B9F0EE0FFF1F661F771F04
:101518005A95D1F710C07727583028F0EF2FF62FBB
:10152800672F5850F9CF552331F076956795F79581
:10153800E7955A95D1F700200AF425DF5F910895C1
:10154800689401C0E894309760407040B1F000247E
:1015580026F0772312F4009416DF172E7EE111206F
:1015680032F07A95EE0FFF1F661F111CF9CFEF2F8F
:10157800F62F612D5F938ADF5F910895EE27FF278D
:10158800662777275F910895EFEFFFEF6FE77FEF0B
:101598005F910895EFEFFFEF6FE77FE75F910895A1
:1015A8005F9386DF703851F3903841F30124089433
:1015B800791F23F41CF300203AF3ECCF0F921F930A
:1015C8002F933F934F93112722279927689FA001B4
:1015D8008F9F302D410D591F6B9F300D411D591F95
:1015E8008E9F27D0BF9F25D06A9F23D0BE9F1DD036
:1015F800AF9F1BD0AE9F110D291F391F491F591FBF
:10160800E32FF42F652F522F4F913F912F911F9168
:101618000F9066232AF0550FEE1FFF1F661F02C0AA
:1016280073954BF229DF5F910895100D211D391F25
:1016380002C0200D311D491F591F089500240A16A4
:101648000B0608955A934A933A932A931A930A9346
:1016580008955D814C813B812A8119810881089513
:00000001FF
