:0C0000000EC0FECFFDCFFCCFFBCFFACF2F
:10000C00F9CFF8CFF7CFF6CFF5CFF4CFF3CFF2CFC0
:10001C00F1CFF894EE27ECBBE5BFF8E1A895A4B7B7
:10002C00A77FA4BFF1BDE1BD8DE0A2E0ED938A9561
:10003C00E9F780E8A0E6ED938A95E9F7E0E0E1BB0B
:10004C00E0E0E2BBE0E0E3BBEFEDEDBFC0E8D0E009
:10005C0016C0E88163D0E062E7B983E08A95F1F7D6
:10006C00E6B15CD0E064E6B9E6B158D0E071E1F3FA
:10007C00E6B154D0E061E6B9E5B121960895E0E827
:10008C00E6BDE0E0E6BDE8BBE3E0E7BBE0E0EABDEF
:10009C00E3BFE2BFE9BDE8BDE7BDE0BFECBDEFBD2E
:1000AC00EEBDEBBDEDBDEBBFE5BFE9BFEDB9E0E8E3
:1000BC00E8B9E0E0E3B9E4B331D0E370F070E4BB4D
:1000CC00E4B32CD0E4BBE0E2E7B9E1E8E6B9E3B194
:1000DC0025D0EF75F070E3B9E0E022D048F0E1E014
:1000EC001FD030F0E2E01CD018F0E3E019D008F497
:1000FC0002C0C09A01C0C098E0E016D048F0E1E020
:10010C0013D030F0E2E010D018F0E3E00DD008F49A
:10011C0002C0C19A01C0C198DFCFFFCFF0E00895B3
:10012C00EA9397DFEC3A0895EA9393DFE43A089563
:00000001FF
