:0E00000011C0FECFFDCFFCCFFBCFFACFF9CF62
:10000E00F8CFF7CFF6CFF5CFF4CF03000000020004
:10001E000A001A000000F894EE27ECBBE5BFF8E1E9
:10002E00F1BDE1BD8DE0A2E0ED938A95E9F780E8A0
:10003E00A0E6ED938A95E9F7ECE1F0E0C8953196EC
:10004E00802DC8953196902D0097B9F0C8953196B0
:10005E00A02DC8953196B02DC8953196102CC89507
:10006E0031966E2F7F2FF02DE12DC89531960D9282
:10007E000197D9F7E62FF72FE1CFEFEDEDBFC0E8EF
:10008E00D0E031C0E8818DD0E062E7B983E08A9597
:10009E00F1F7E6B186D0E064E6B9E6B182D0E07160
:1000AE00E1F3E6B17ED0E061E6B9E5B121960895BF
:1000BE00E0E0EBBBEABBE8BBEFE8E7BBE0E0E3BFA9
:1000CE00E2BFE9BDE0BFEFBDEEBDEDBDECBDEBBDEA
:1000DE00EBBFE5BFE9BFEDB9E0E8E8B9E0E2E7B9AB
:1000EE00E1E8E6B90895E8ECF0E0E0938000F093E3
:1000FE008100E2E8A8ECB0E056D0E4E8A5EDB0E06F
:10010E0052D0E6E8A5EDB0E04ED0ECEDF0E0E09395
:10011E008800F0938900EAE8ACEDB0E044D0ECE85A
:10012E00A6EEB0E040D0EEE8A6EEB0E03CD0E4E0C3
:10013E00F0E08E2E9F2EECE0F0E04E2E5F2EB8DF1C
:10014E00E0E034D0EF93E1E031D0AF91EA2BEF93C2
:10015E00E2E02CD0AF91EA2BEF93E9E027D0AF91FC
:10016E00EA2BC1F0E1E0F0E0AE0EBF1EC19AC29ADA
:10017E008A149B0434F4C098E6E4F0E0FA93EA9310
:10018E001DD084E18A95F1F7E1E3F0E0FA93EA936A
:10019E0015D0D6CFAA24BB24C09AC198C298D0CF6E
:1001AE00FFCFF0E00895A083B1830895EA936ADF4C
:1001BE00AE2FE42DF52DB0E00DD00895E991F99113
:1001CE00309639F08AEF90E00197F1F7A8953197C4
:1001DE00C9F70895EA17FB07E1E00CF0EE27089542
:00000001FF
